:020000040800F2
:10000000981A002069480008653200087348000803
:10001000673200086B3200086F32000800000000F1
:100020000000000000000000000000007332000823
:1000300075320008000000007F48000845330008C2
:100040008348000883480008834800088348000864
:100050008348000883480008834800088348000854
:100060008348000883480008834800088348000844
:100070008348000883480008834800088348000834
:100080008348000883480008834800088348000824
:100090008348000883480008834800087732000836
:1000A0008348000883480008834800088348000804
:1000B000834800088932000891320008834800080C
:1000C00083480008834800088348000883480008E4
:1000D00083480008AD320008B5320008BD32000880
:1000E00083480008834800088348000883480008C4
:1000F00083480008834800088348000883480008B4
:1001000083480008834800088348000883480008A3
:10011000C5320008CD320008834800089332000839
:100120008348000883480008834800088348000883
:100130008348000883480008834800088348000873
:100140008348000883480008834800088348000863
:10015000834800088348000883480008D532000817
:100160008348000883480008834800088348000843
:100170008348000883480008834800088348000833
:100180008348000883480008DFF810D00CF088FD91
:1001900000480047A5010008AFF30080981A00202E
:1001A00000BFFEE701F04CFE00F00EF801E000F0A9
:1001B00031F8FCE7704770477047704710B500F0A2
:1001C00008F910BD70477047002000BF1FE000EB2A
:1001D0004001234A02EB810189884FF47A7292FB35
:1001E000F1F100EB40021E4B03EB8202D18000EBE9
:1001F00040011A4602EB8101C988012905DA012173
:1002000000EB400203EB8202D180411CC8B20728F8
:10021000DDD3704770B5002400BF1EE003F09CF8EA
:10022000054604EB44000E4901EB80008068281A63
:1002300004EB44010A4A02EB8101C98888420AD3CF
:1002400004EB4400114601EB8000856004EB44019F
:1002500052F821008047601CC4B2072CDED370BD69
:10026000000000209FEDFC0AFC4880ED030A9FED92
:10027000FA0A80ED040A9FEDF80A80ED050A70473E
:10028000B0EE401AF0EE410AF8EE003AF4EEE30A5E
:10029000F1EE10FA0ADDF0EE003AF4EEE30AF1EEC8
:1002A00010FA03D2DFEDEC3AF0EE630AEB48D0ED42
:1002B000003A63EEA01AD0ED033A73EEA03AC0ED17
:1002C000033AD0ED033AB3EE0E4AF4EEC43AF1EE3F
:1002D00010FA03DDF3EE0E3AC0ED033ADF48D0ED3D
:1002E000033ABBEE0E4AF4EEC43AF1EE10FA03D232
:1002F000FBEE0E3AC0ED033AD848D0ED013A90ED4E
:10030000034A23EE842AD0ED043A30EEE33AC0EDFE
:10031000040AD0ED023A63EE832A71EE823A33EE9C
:10032000A20AF3EE0E3AB4EEE30AF1EE10FA03DDA0
:10033000F3EE0E3AB0EE630AFBEE0E3AB4EEE30AC9
:10034000F1EE10FA03D2FBEE0E3AB0EE630AC348A8
:1003500080ED050A704710B52DED028BC04800886E
:10036000642807DABE4800881430BD490880BDEC17
:10037000028B10BD0020BA490880BA48007810B935
:10038000FFF770FFF3E7B848B0F9000000EE100A7D
:10039000B8EEC00AFFF774FFB0EE408AB7EE000A6D
:1003A000B4EEC08AF1EE10FA01DD5A240AE0BFEE85
:1003B000000AB4EEC08AF1EE10FA02D24FF487744C
:1003C00000E0002422461E21052001F051FB00BF61
:1003D000CDE70EB50020029001900090A34890F860
:1003E0003800002872D1A148B0F9440040F21451FD
:1003F00088420FDD9D48B0F9440040F2A461884274
:1004000008DA9B48007840B9642001F046FA984920
:10041000087002E00020964908709448B0F9440042
:10042000B0F5487F0DDD9148B0F94400B0F5966F06
:1004300007DA9048007838B901F050FA8D49087011
:1004400002E000208B4908708848B0F9440040F26F
:10045000A46188423BDD8548B0F9440040F698012C
:10046000884234DA84480078002833D10120824958
:10047000087082490870002081490880814908700D
:100480008149087081490870814908708149087064
:100490008149087081490870814908708149087054
:1004A00000BF0EE0002100EB40027F4B995400EBAF
:1004B00040021A44517000EB40021A449170411CF2
:1004C000C8B20428EEDBFFF7CDFE03E021E20020F6
:1004D000694908706848007801287DD1674800782C
:1004E0000C287AD2DFE800F0060E171F333F548B3A
:1004F000A6ECEBEA00206249088062490870624974
:10050000087006E2032001F087F95C490978084485
:100510005A490870FDE101F047F958490978084443
:1005200056490870F5E156480088B0F5FA6F05DACB
:100530005348008814305249088007E00020504991
:1005400008804E480078401C4C490870E1E10320C7
:1005500056490870642001F0A0F948490978084418
:1005600046490870D5E14648008841F28831884202
:1005700005DA4348008814304149088007E000202C
:100580003F4908803D480078401C3C490870C0E164
:1005900000221421052001F06BFA01204349087064
:1005A0003B48007830BB2F480078012823D14048D1
:1005B0000078022803D03E48007803281BD1324837
:1005C0000078401C3049087008460078032815DB85
:1005D000374800782F4901E09CE199E1087001203B
:1005E0002B490870002028490870254908800720F9
:1005F0002249087002E000202349087089E101F0D7
:1006000086F9012815D10420284908701C48008863
:10061000B0F57A7F05DA1A48008814301849088046
:1006200007E000201649088014480078401C134950
:1006300008706EE11F48007801287DD108201B4911
:1006400008701D48B0F9000014283ADD002214217A
:10065000022001F00DFA3FE00000000058000020E9
:1006600070000020A0010020A4010020BC0900208F
:10067000720000207300002074000020750000202C
:100680007600002083000020780000207900002000
:100690007A0000207B0000207D0000207E000020EA
:1006A000800000207F000020EC010020820000205C
:1006B000A1010020A2010020A801002022E1C9E040
:1006C00058E09A48B0F9000010F1140F04DAB4228F
:1006D0001421022001F0CCF99548B0F900001E2841
:1006E00005DD5A221421022001F0C2F90BE09048E6
:1006F000B0F9000010F11E0F05DA4FF487721421D3
:10070000022001F0B5F98A48B0F900001E282DDC5E
:100710008748B0F9000010F11E0F27DB8348B0F9BD
:100720000000142822DC8148B0F9000010F1140FF9
:100730001CDB8048008800E01BE0C82805DA7D4803
:10074000008814307B49088013E000207949088034
:1007500079490870794908707949087079490870B1
:100760007949087009207949087002E00020714930
:100770000880CEE00720764908706E48008814286B
:1007800005DA6C48008814306A49088061E000206E
:100790006849088068480078052823DA6D480078A1
:1007A00067490978884203DD6A480078644908701F
:1007B0006948007863490978884203DD6648007813
:1007C00060490870654800785F490978884203DD10
:1007D000624800785C49087057480078401C5649C8
:1007E000087036E05E480078042817DA544800782C
:1007F0005B49097801EB41015A4A5054514800784D
:100800005749097801EB4101114448704E4800787E
:100810005349097801EB4101114488709DF80800A3
:10082000474909780844C0B202909DF80000454944
:1008300009780844C0B200909DF804004249097844
:100840000844C0B2019001203C4908700A203F4989
:1008500008705EE03948007818B9002042490870F5
:1008600057E04148007820BB4048007802280DD16D
:10087000374908701E215A2001F062F8012840D142
:100880003949087000202B4908803AE03748007841
:10089000032836D105202E4908701E215A2001F068
:1008A00099F801282DD1304908700020214908808D
:1008B00027E02048008842F21071884205DA1D487E
:1008C000008814301B4908801BE00020194908806B
:1008D0002549087022480078401C21490870FFF71C
:1008E000C1FC002022490870144908701C48007897
:1008F000042803DB0B201549087002E00620134989
:10090000087006E006201249087000F0E7FF00BFFB
:1009100000BF0AE000200D49087006490880104910
:10092000087014490870FFF79DFC0EBDA801002057
:10093000A6010020760000207D0000207C00002021
:100940007E0000207F000020800000207500002035
:1009500082000020AA010020AC010020AB01002091
:1009600083000020EC010020790000207B000020A3
:100970007A00002078000020FF20F94981F84E001D
:100980006421F748A0F850100121A0F85210FF2070
:10099000F34981F880011421F148A0F88211002167
:1009A000A0F88411FF20EE4981F82001C821EC480D
:1009B000A0F822110021A0F82411FF20E84981F8B5
:1009C00032010021E648A0F83411A0F83611FF20CA
:1009D000E34981F838010021E148A0F83A11A0F874
:1009E0003C11FF20DE4981F886010021DC48A0F897
:1009F0008811A0F88A11FF20D94981F8400500210B
:100A0000D748A0F84215A0F84415FF20D44981F832
:100A10004C050021D248A0F84E15A0F85015FF2033
:100A2000CF4981F83E016421CD48A0F84011002152
:100A3000A0F84211704770B504460D46294620467D
:100A400003F067FE70BDC64A10700122C44B5A7095
:100A50007047C34A82F84C05012382F84D35704730
:100A60002DE9F04104460D4600260027E178A81F35
:100A7000814201D0BDE8F081002006E0215C3144D4
:100A8000CEB2B919CFB2411CC8B2A91E8142F5DC61
:100A9000601910F8020CB04204D1601910F8010C72
:100AA000B84200D0E6E72078AA2805D1607861280E
:100AB00003D06078FF2800D0DCE7A078202811D18F
:100AC000A088A8490880E0884880208988806089BB
:100AD000C880A0890881E0894881208A8881608A4D
:100AE000C881AEE0A0780F280DD1207940B29E4990
:100AF0000870607940B24870A07940B28870E0799F
:100B000040B2C8709DE0A07806280CD120799749A2
:100B100048706079C870A0790871E1799348417193
:100B2000217A81718DE0A07807280AD1002005E0A4
:100B3000211D095C8E4A1154411CC8B20628F7DBFE
:100B40007FE0A07803280AD1002005E0211D095C80
:100B5000884A1154411CC8B20728F7DB71E0A0781D
:100B600003280AD1002005E0211D095C824A1154A6
:100B7000411CC8B20928F7DB63E0A078012860D0E7
:100B8000A078E0281ED12079012806D0022805D0BF
:100B9000102804D0112804D102E003E002E001E0B3
:100BA00000E000BF00BF20796D4981F80C060846BF
:100BB00080F80D6680F80E7600F20C61AF20FFF72A
:100BC00042FF3EE0A078B0B9654890F80F06217961
:100BD000884236D1624890F810066179884230D157
:100BE0005F4890F81106A17988422AD100205C491B
:100BF00081F8000625E0A078E12811D121796079FB
:100C000001EB00201FFA80F85548A0F81486002157
:100C1000C0F8181600F21461FF20FFF71AFF10E069
:100C2000A078E2280DD120794D4981F80C060846BC
:100C300080F80D6680F80E7600F20C61FF20FFF759
:100C400002FF00BF16E710B504464C48007838B9DB
:100C5000AA2C05D10120494908704948047072E066
:100C600046480078012809D1612C01D0FF2C05D11C
:100C70000220424908704248447064E03F480078CE
:100C8000022805D103203D4908703D4884705AE090
:100C90003A48007803280CD1FA2C0ADA04203749A4
:100CA00008703748C470374804700020364908700F
:100CB00049E032480078042819D1324800780028E9
:100CC00015DD30480078401E2E4908702E48007807
:100CD0002D490978491C2C4A1170001D28490C54D3
:100CE0002848007858BB0520244908702BE0234889
:100CF000007805280DD10620204908702248007888
:100D000021490978491C204A1170001D1C490C54C6
:100D100019E01A480078062812D1002017490870F7
:100D200019480078001D16490C5417480078401DDA
:100D300016490870084601781148FFF791FE02E055
:100D400000200E49087010BD7CB50346342B71D0CD
:100D500023DC0D2B44D01BDC63B3092B6BD16BE080
:100D60002C0200205609002090010020B00900202C
:100D70009700002090000020660900208A000020D3
:100D800048080020880000208900002086000020FC
:100D9000302B32D0332BE1D15BE0412B74D004DC1B
:100DA000352B72D0402BD9D171E0E02B6ED0E22BE5
:100DB000D4D19AE0F44890F80C460D78681C08707D
:100DC0005455F14890F80D460D78681C087054553C
:100DD000ED4890F80E460D78681C08705455C8E030
:100DE000002007E0E94C255C0E78741C0C709555CA
:100DF000441CE0B20428F5DBBBE0002008E0E44D31
:100E0000041D2D5D0E78741C0C709555441CE0B2C9
:100E10001728F4DBDF4800789071DF480078D07144
:100E2000DE4800781072DE480078D075DD48007822
:100E3000D0739EE01AE09BE0002007E0D84C2578B4
:100E40000E78741C0C709555441CE0B20E28F5DB2E
:100E50008FE0002007E0D44C255C0E78741C0C70E9
:100E60009555441CE0B20628F5DB82E0002008E03E
:100E7000CD4C1234255C0E78741C0C709555441CB6
:100E8000E0B20728F4DB74E00EE05CE019E000203B
:100E900007E0C64C255C0E78741C0C709555441CFC
:100EA000E0B21428F5DB64E0002007E0C04C255CCC
:100EB0000E78741C0C709555441CE0B20E28F5DBBE
:100EC00057E0B14890F801460D78681C08705455F9
:100ED000002007E0B74C255C0E78741C0C7095550B
:100EE000441CE0B20A28F5DB43E0A748B0F814063A
:100EF00000B201909DF804400D78681C08705455AC
:100F00009DF805400D78681C087054559E48D0F82F
:100F1000180600909DF800400D78681C0870545524
:100F20009DF801400D78681C087054559DF80240EA
:100F30000D78681C087054559DF803400D78681CA6
:100F40000870545515E001240D78681C087054553C
:100F500002240D78681C0870545503240D78681C11
:100F60000870545504240D78681C0870545500E02E
:100F700000BF00BF7CBDF8B504460F4600200090BE
:100F8000AA219DF80020501CC0B200908A488154CC
:100F900039789DF80020501CC0B2009086488154DA
:100FA0009DF80010481CC0B20090834844540021B2
:100FB0009DF80020501CC0B200907F48815402462A
:100FC00069462046FFF7C0FE9DF80000001F7A49E1
:100FD000C87000250026002007E07749095C2944F5
:100FE000CDB27119CEB2411CC8B29DF80010884232
:100FF000F3DB9DF80010481CC0B200906E484554C9
:101000009DF80010481CC0B200906B4846545E48E2
:1010100090F8000640B1E02C06D15B4880F80F46FE
:1010200080F8105680F811669DF800106248FFF7AE
:1010300002FDF8BD10B5044604EB4400524901EB33
:101040004000408828B304EB440001EB4000808856
:1010500004EB44014C4A02EB4101498888420CDA16
:1010600004EB4400114601EB40008088401C04EB77
:10107000440102EB410188800BE0012004EB4401B4
:10108000414A02EB4101888004EB440102EB41013B
:10109000487004EB44003C4901EB4000407868B1E3
:1010A000002004EB4401384A02EB4101487004EB94
:1010B000440002EB40012046FFF75DFF10BD324ABD
:1010C00082F84005012382F8413501222E4B83F836
:1010D0000026704710B52DED028BB0EE408A00F06F
:1010E00026F80121284880F8211134480078012889
:1010F00005D13020FFF79EFF0020304908703320D3
:10110000FFF798FF3420FFF795FF4020FFF792FF8D
:101110004120FFF78FFFE020FFF78CFFE220FFF771
:1011200089FF0D20FFF786FFBDEC028B10BD16482E
:1011300090F80006012821D121480078322805DAEC
:101140001F480078401C1E4908701CE000201C4904
:1011500008701C480078401C1A490870084600783E
:10116000052804DA0121084880F841150BE0002029
:1011700014490870044981F8000604E00020104971
:1011800008701049087070472C0200208C00002065
:10119000980F002054000020550000205600002029
:1011A000820000208300002080090020F609002032
:1011B000480900202E080020F8010020AD01002081
:1011C0008B0000208700002000B52DED028B85B03C
:1011D000B0EE408AF64890F8390000287BD1F448F8
:1011E000B0F94200B0F5966F14DAF148B0F9440056
:1011F00040F2A461884206DA012000F00DFB0120D4
:10120000EC49087026E0032000F006FB0320E949C2
:1012100008701FE0E648B0F9420040F2A46188423D
:1012200012DAE348B0F94400884206DA022000F0FE
:10123000F3FA0220DF4908700CE0032000F0ECFA1A
:101240000320DC49087005E0032000F0E5FA0320E4
:10125000D8490870D7484078D649097888420BD0D9
:10126000D4480078D349487008460078032803D151
:1012700008468078401C8870CE488078E8B1CE4817
:101280000088B0F5FA6F10DACB48008800EE100A3B
:10129000B8EE400ADFEDC90A00EE880ABCEEC00ACB
:1012A00010EE100AC449088007E0002020B1002198
:1012B000C14A1180BF4A917000BFBD48B0F93A00E1
:1012C000A0F2DC5000EE900AF8EEE00AB0EE600A00
:1012D0009FEDBB1A00E092E0DFEDBA0A01F014FACC
:1012E0008DED010AB248B0F93C00A0F2DC5000EEEE
:1012F000900AF8EEE00AB0EE600A9FEDB11ADFED59
:10130000B10A01F001FA8DED020AA948B0F93E00D8
:10131000A0F2DC5000EE900AF8EEE00AB0EE600AAF
:101320009FEDA91ADFEDA70A01F0EEF98DED030A92
:101330009F48B0F94000A0F2DC5000EE900AF8EEB1
:10134000E00AB0EE600A9FEDA01ADFED9E0A01F000
:10135000DBF98DED040A9D48007858B19FED990A9C
:101360008DED010A9FED970A8DED020A9FED950A1A
:101370008DED040A9DED010ADFED950A20EE200AAD
:10138000DFED940A20EE200ABDEEC00A10EE100A2E
:1013900000B2914908809DED020AB1EE400ADFEDEE
:1013A0008C0A20EE200ADFED8B0A20EE200ABDEE2B
:1013B000C00A10EE100A00B248807D48C08FA0F528
:1013C0007A7000B288809DED040AB1EE400ADFED2C
:1013D000830A20EE200ADFED820A20EE200ABDEE0D
:1013E000C00A10EE100A00B2C88001217D4880F8C2
:1013F000871100207C4908707C4908701EE07C48F9
:10140000C07878B17848007828B9032000F004FA51
:101410007549087006E07548007818B900F024FA9C
:101420007249087000206C49088048804FF4AF7002
:1014300088800020C88088814881088105B0BDEC83
:10144000028B00BD10B504466A48008800EE100A01
:10145000B8EE400ADFED680A20EE200ABDEEC00AB1
:1014600010EE100A00B2654908806248408800EE1C
:10147000100AB8EE400ADFED600A20EE200ABDEE49
:10148000C00A10EE100A00B248805A48808800EE68
:10149000100AB8EE400ADFED580A20EE200ABDEE31
:1014A000C00A10EE100A00B288805248C08800EED0
:1014B000100AB8EE400ADFED500A20EE200ABDEE19
:1014C000C00A10EE100A00B2C8804A48008900EE37
:1014D000100AB8EE400ADFED480A20EE200ABDEE01
:1014E000C00A10EE100A00B208814248408900EE9E
:1014F000100AB8EE400ADFED400A20EE200ABDEEE9
:10150000C00A10EE100A00B248813A48808900EE05
:10151000100AB8EE400ADFED380A20EE200ABDEED0
:10152000C00A10EE100A00B288813248C08900EE6D
:10153000100AB8EE400ADFED300A20EE200ABDEEB8
:10154000C00A10EE100A00B2C8812D48007818B900
:1015500001202B49087027E0E4B1002017E027495B
:1015600031F91010002901DC00210BE0234931F989
:101570001010B1F57A7F02DD4FF47A7102E01F4955
:1015800031F910101D4A22F81010411CC8B2082869
:10159000E5DB09E0002005E00021184A22F81010E0
:1015A000411CC8B20828F7DB144802F0E8F910BD66
:1015B000BC0900209F000020A200002000007A4407
:1015C00000002042000000000000A042B000002007
:1015D0008F360E3B00C05A4548090020C6F91B3B18
:1015E000000048432C0200209D0000209E000020A7
:1015F000B009002056090020CDCCCC3D7009002058
:10160000A400002010B501F079FFDFED290A20EEDB
:10161000200ABCEEC00A10EE100A2649088010BD50
:1016200010B525480088401C2349088008460088DA
:101630000A2190FBF1F201FB12001F4908800846C5
:10164000008810BB9FED1D0A00F0C3FD9FED1B0A33
:10165000FFF7BAFD9FED190A00F0CCFB9FED170ACA
:1016600001F08CFA14484088401C13494880084611
:1016700040880A2190FBF1F201FB12000E494880DC
:101680000846408808B9FFF7BDFF03F0C1F8012004
:1016900001F014FC9FED0A0A00F014F89FED080A0F
:1016A000FFF718FD0120FFF7CDFE01F0C8FF10BDC8
:1016B0000000C8428C000020A60000200AD7233C6E
:1016C0006F12833A10B52DED028BB0EE408A00F018
:1016D00020F800BF2D4840782D490978884214D061
:1016E0002A4840782A49087000202A4988744FF413
:1016F00087712848A0F813102448C1692548C0F80C
:1017000015100121244880F8391100BFBDEC028B6F
:1017100010BD22480078FF2804D020480078401CE3
:101720001E490870194800781D490978884216D06A
:10173000164800781A4908701448007A50B11348C6
:10174000C07838B111484089124908800F48808913
:10175000488004E04FF400400E49088048800B4860
:1017600040781049097888420ED0084840780D49E1
:1017700008704FF40040074988800121064880F82E
:10178000331100200549087070470000280A002026
:10179000AD000020800900202C020020AC000020B9
:1017A000AA000020AB00002010B50120FA49887083
:1017B000FA4890F8000688B91020F84981F8010627
:1017C0000021F64880F80216012180F8031600F285
:1017D0000161FF20FFF773FC012010BD0020FCE732
:1017E00010B50020EC498870EC4890F8000688B9E4
:1017F0001020EA4981F801060021E84880F8021625
:10180000022180F8031600F20161FF20FFF757FC68
:10181000012010BD0020FCE710B50446E048007828
:10182000A0421FD0DD4890F80006C8B9DA4804701D
:10183000DB4804700120D94981F801060121D7480D
:1018400080F8021680F80316D3480178D34880F850
:10185000041600F20161FF20FFF731FC012010BDEA
:101860000020FCE70120FAE710B5CC4890F800060C
:1018700088B91020C94981F801060021C74880F8BD
:101880000216072180F8031600F20161FF20FFF71E
:1018900016FC012010BD0020FCE701B5BF4890F800
:1018A0000006C8B91020BD4981F801060021BB48D7
:1018B00080F80216052180F803169DF8001080F8C4
:1018C00004169DF8011080F8051600F20161FF2052
:1018D000FFF7F5FB012008BD0020FCE710B5AF487D
:1018E00090F8000688B91020AC4981F80106002163
:1018F000AA4880F80216062180F8031600F201615A
:10190000FF20FFF7DCFB012010BD0020FCE710B535
:10191000A24890F8000688B91020A04981F8010675
:1019200000219E4880F80216042180F8031600F278
:101930000161FF20FFF7C3FB012010BD0020FCE781
:1019400013B5BDF80000B0F5B47F05DBBDF80000AD
:10195000A0F5B47080B20090BDF80000002805DA50
:10196000BDF8000000F5B47080B20090BDF804002E
:10197000002801DA00201CBDBDF80400052801DAAA
:1019800005200190854890F8000608BB1020834987
:1019900081F801060221814880F80216072180F8AB
:1019A00003169DF8001080F804169DF8011080F8C9
:1019B00005169DF8041080F806169DF8051080F8AD
:1019C000071600F20161FF20FFF779FB0120D2E743
:1019D0000020D0E713B5BDF80000B0F5B47F09DBF7
:1019E000BDF800004FF4B47190FBF1F201FB12005E
:1019F00080B20090BDF80000002805DABDF80000B4
:101A000000F5B47080B20090BDF80400002801DA3F
:101A100000201CBDBDF80400052801DA0520019056
:101A20005E4890F8000608BB10205C4981F801066A
:101A300002215A4880F80216082180F803169DF802
:101A4000001080F804169DF8011080F805169DF826
:101A5000041080F806169DF8051080F8071600F2AD
:101A60000161FF20FFF72BFB0120D2E70020D0E728
:101A700007B54A4890F8000648BB1020474981F84E
:101A800001060221454880F80216032180F803165A
:101A90009DF8001080F804169DF8011080F80516D6
:101AA0009DF8041080F806169DF8051080F80716BA
:101AB0009DF8081080F808169DF8091080F809169E
:101AC00000F20161FF20FFF7FAFA01200EBD0020AD
:101AD000FCE710B5314890F8000688B901202F497D
:101AE00081F8010600212D4880F80216032180F8B4
:101AF000031600F20161FF20FFF7E1FA012010BD9B
:101B00000020FCE710B5254890F8000688B90120B0
:101B1000224981F801060021204880F8021604219C
:101B200080F8031600F20161FF20FFF7C8FA0120D8
:101B300010BD0020FCE710B5184890F8000688B9E1
:101B40000120164981F801060021144880F8021688
:101B5000052180F8031600F20161FF20FFF7AFFABC
:101B6000012010BD0020FCE710B50C4890F80006DD
:101B7000C0B90120094981F801060021074880F811
:101B80000216022180F8031600F20161FF20FFF720
:101B900096FA012010BD0000B00900202C020020A0
:101BA000AE0000200020F5E710B504469848B0F9D3
:101BB0004000B0F5AF6F0BDD9548B0F94000B0F5CF
:101BC000C86F05DA0120934948709349087002E014
:101BD0000020904948708E48B0F93E00B0F5966FED
:101BE00006DA8C48407818B901208A49087002E06A
:101BF0000020884908708848007801284AD1874821
:101C0000C078002853D18248B0F93A0040F26C7194
:101C1000884210DD7E48B0F93C0040F24C418842D9
:101C200009DA7B48B0F93E00884204DA7848B0F916
:101C30004000884217DB7648B0F9400040F26C71F2
:101C4000884230DD7248B0F93C0040F24C41884295
:101C500029DA6F48B0F93E00884224DA6C48B0F9BE
:101C60003A0088421FDA6E480088B0F57A7F12DAAF
:101C7000D4ED000A6A48008800EE100AB8EE400A67
:101C80009FED681A00EE810ABCEEC00A10EE100A41
:101C90006349088062E0FFF787FD00206049088003
:101CA0005D4908705AE000205D49088056E05B48B5
:101CB000C078012852D15648B0F93A0040F26C7110
:101CC000884210DD5248B0F93C0040F24C41884255
:101CD00009DA4F48B0F93E00884204DA4C48B0F9BE
:101CE0004000884217DB4A48B0F9400040F26C716E
:101CF000884230DD4648B0F93C0040F24C41884211
:101D000029DA4348B0F93E00884224DA4048B0F965
:101D10003A0088421FDA42480088B0F5967F12DA0E
:101D2000D4ED000A3E48008800EE100AB8EE400AE2
:101D30009FED3C1A00EE810ABCEEC00A10EE100ABC
:101D4000374908800AE0FFF74BFD0020344908803E
:101D50003149087002E000203149088010BD10B5FB
:101D60002E48C078002844D12948B0F9400040F2FC
:101D70004C41884217DA2648B0F93C00884212DA12
:101D80002348B0F93E0088420DDA2148B0F93A0004
:101D9000884208DA2448007838BBFFF79AFE012011
:101DA0002149087025E01A48B0F9400040F26C71F2
:101DB00088421BDD1648B0F93C0040F24C41884295
:101DC00014DA1348B0F93E0088420FDA1048B0F92F
:101DD0003A0040F26C71884208DD1348007820B95F
:101DE000FFF790FE01201049087002E000200E4924
:101DF000087010BD10B52DED020B054890F83900A4
:101E000020B96846FFF7D0FEFFF7A9FF1CBD000010
:101E1000BC090020B0000020B4000020B009002060
:101E2000B200002000007A44B500002010B501F097
:101E3000F1FD0120F84981F8380081F8390010BD22
:101E400010B501F0C3FA642001F0B4FA01F096FB7A
:101E500001F022FC642001F0ADFAF04802F00DF828
:101E6000EE4802F004F9ED4802F0CBFAEB4802F03C
:101E7000E5FB642001F09EFAFFF7D8FF01F0EAFAD3
:101E8000642001F097FAFEF777FD4FF4487001F0F7
:101E900091FA01F0B8F801F0E7FE012010BD40F61C
:101EA000C411884203DDDE490978032903DCDC49DB
:101EB00009780A290DD10021D94A1170D649B1F803
:101EC0004E10491CD44AA2F84E10012182F850103D
:101ED00012E0B0F5967F0FDD40F6B83188420BDA9C
:101EE00002B2CD49891CCE4B1B7821F81320CC4976
:101EF0000978491CCA4A1170704738B50446C9A010
:101F000000680090C8484068C749086001F027FA97
:101F1000C5494860084640680968401A40F6C4113F
:101F2000884202D90020C1490870C0480178007871
:101F3000401CBE4A1070BE48445410460078192810
:101F40007ED1182011460870B94800780F2878D142
:101F5000B748007E38B1B648007EB64A12781DF800
:101F600002108842F3D10020B0490870B048407890
:101F7000AF49897801F0070140EA0120A64988822B
:101F8000AB48C0788006400DA949897840EAE10055
:101F9000A149C882A6484079C007400DA4490979E3
:101FA00040EA8100A249C97840EAA1109A49088311
:101FB0009F4880790007400D9D49497940EA6100BA
:101FC000954948839A48C0794006400D98498979D7
:101FD00040EA2110904988839548407A8007400D57
:101FE0009349097A40EA41009149C97940EAE110F0
:101FF0008949C8838E48807AC006400D8C49497A49
:1020000040EAA100844908848948C07AC000884910
:10201000897A40EA6111804841848548007B84497F
:10202000497B01F0070140EA01207B498884804810
:10203000807B8006400D7E49497B40EAE10001E05B
:1020400072E067E07449C8847948007CC007400D9D
:102050007749C97B40EA81007549897B40EAA11034
:102060006D4908857248407C0007400D7049097C25
:1020700040EA6100684948856D48807C4006400D13
:102080006B49497C40EA2110634988856848007D96
:102090008007400D6649C97C40EA41006449897C5B
:1020A00040EAE1105C49C8856148407DC006400DAA
:1020B0005F49097D40EAA100574908865C48807D58
:1020C000C0005B49497D40EA611153484186584848
:1020D000C07D514981F83400084690F8340000F082
:1020E000080040B90846B0F84E00401CA1F84E0068
:1020F000022081F850004F480078401C4D4908707C
:102100000878C11700EB91718910A0EB8101494A51
:10211000117009E0002005E0454A411C515C115452
:10212000411CC8B21828F7DB38BD10B50446D4ED01
:10213000000A4148008800EE100AB8EE400A9FED00
:102140003F1A00EE810ABCEEC00A10EE100A3A49AE
:10215000088008460088B0F57A7F39DD00200880C5
:102160002D48B0F84E002C49C8860846C08E052878
:1021700003DA012081F8380003E00020264981F8C5
:102180003800254890F83800C8B123480078D8B9FD
:102190002B480078401C2A490870087800EBD07161
:1021A0004910A0EB4101264A117010460078012821
:1021B00002D101F0B0FC07E001F02CFC04E016486D
:1021C00090F850001449087000201349A1F84E00FF
:1021D00010BD10B52DED020B6846FFF7A6FF0E48A7
:1021E00090F8380000286DD10B48007801280DD1F7
:1021F000002008E00849891C31F81020383121F806
:102200001020411CC8B20A28F4DB37E002480078ED
:10221000022833D100202FE0BC09002020A10700B4
:10222000B800002004142434BC000020C4000020A6
:102230000E0A0020C5000020C800002000007A44DB
:10224000C60000202A4931F91010A1F5806100EE86
:10225000101AF8EEC00A9FED270A9FED271A01EE2B
:10226000200ABDEEC00A10EE101A0AB2204926312B
:1022700021F81020411CC8B20A28E3DB1C4814389E
:10228000B0F94200B0F5966F06DD19481438B0F980
:102290004200B0F5AF6F0DDB15481438B0F94200BD
:1022A000B0F5C86F0ADD12481438B0F94200B0F535
:1022B000E16F03DA01201149087011E000200F4995
:1022C00008700DE001200D490870002006E0002292
:1022D0000749263121F81020411CC8B20A28F6DB34
:1022E000064800780249143981F839001CBD000005
:1022F000D00900200080BB442FDD243FCA0000200D
:10230000F0EE400AF5EEC00AF1EE10FA02DBB0EE94
:10231000600A7047B1EE600AFBE700B5B0EE403AE4
:10232000B0EE602AB5EEC03AF1EE10FA07D1B5EE84
:10233000C02AF1EE10FA02D19FEDFC1A99E0B0EE3E
:10234000430AFFF7DDFFF0EE403AB0EE420AFFF736
:10235000D7FFF0EE402AF4EEE23AF1EE10FA02D2A4
:1023600083EEA24A01E082EEA34A9FEDF10AB4EEA9
:10237000C04AF1EE10FA02D2F0EE441A2DE0DFED81
:10238000ED0AB6EE000A14EE200AF0EE404ABDEE69
:10239000E40A10EE100A00EE100AB8EEC00A34EE9D
:1023A000C00AF0EE404AE44901EB800191ED000AD9
:1023B000F0EE401AE04A411C02EB810191ED000A67
:1023C000114601EB8001D1ED000A70EE600AB0EE1B
:1023D000610A00EEA40AF0EE401AF4EEE32AF1EEF0
:1023E00010FA20DDB5EEC02AF1EE10FA0ADBB5EEE8
:1023F000C03AF1EE10FA02DBB0EE611A39E0B1EE4C
:10240000611A36E09FEDCD1AB5EEC03AF1EE10FA42
:1024100004DB31EE610AB0EE401A2AE031EEC10A67
:10242000B0EE401A25E0B5EEC03AF1EE10FA10DB3E
:102430009FEDC31AB5EEC02AF1EE10FA04DB31EEBF
:10244000610AB0EE401A14E031EE210AB0EE401AF3
:102450000FE09FEDBC1AB5EEC02AF1EE10FA04DBD6
:1024600031EE210AB0EE401A03E031EE610AB0EE1F
:10247000401AB0EE410A00BD00B5B0EE405AF0EE91
:10248000605AF0EE450AB0EE650AFFF746FF00BD60
:10249000F0EE400AF6EE001A60EEA11AB0EE611AF4
:1024A000B0EE600A10EE100AA749A1EB600000EE42
:1024B000100A21EE002AF7EE081A42EE401A61EEE9
:1024C000801AB0EE610A21EE002AF7EE081A42EEF9
:1024D000401A61EE801AB0EE610A704700B5F0EE66
:1024E000402AB0EE620AFFF7D3FF20EE220A00BDB9
:1024F00010B52DED0A8BB0EE409AF0EE609A9FED8C
:10250000930B53EC102B51EC190B0AF0C7FA18D2AD
:102510009FED900B53EC102B51EC190B0AF03BFA8A
:1025200041EC1B0B9FED8D0B53EC102B0AF08CF93B
:1025300041EC1A0B53EC192B0AF02DFA41EC180B55
:1025400017E09FED840B53EC102B51EC190B0AF0A4
:1025500022FA41EC1B0B9FED810B53EC102B0AF080
:1025600017FA41EC1A0B53EC192B0AF014FA41EC50
:10257000180B9FED760B53EC102B51EC180B0AF057
:102580008DFA20D29FED770B53EC102B51EC180BEA
:102590000AF05AF941EC1C0B9FED740B53EC102B15
:1025A0000AF0F9F941EC1B0B9FED6E0B53EC102B6D
:1025B0000AF04AF941EC1A0B53EC182B0AF0EBF92C
:1025C00041EC180B1FE09FED670B53EC102B51EC07
:1025D000180B0AF0DAF941EC1C0B9FED660B53EC7B
:1025E000102B0AF0D8F941EC1B0B9FED5E0B53EC5E
:1025F000102B0AF029F941EC1A0B53EC182B0AF0B6
:10260000CAF941EC180BB0EE480AF0EE680ABDECCE
:102610000A8B10BD10B52DED068BB0EE408AF0EEA2
:10262000608A01249FED550B53EC102B51EC180BD5
:102630000AF04CFA0AD89FED510B53EC102B51ECD9
:10264000180B0AF0A2F941EC180BA41E20460AF060
:1026500014FA41EC190BB0EE480AF0EE680AFFF7E5
:1026600047FFB0EE40AAF0EE60AA53EC192B51ECF4
:102670001A0B0AF090F941EC100BBDEC068B10BD63
:1026800010B52DED088BB0EE408AF0EE608A012483
:102690009FED3C0B53EC102B51EC180B0AF0D4F8C7
:1026A00041EC180B9FED350B53EC102B51EC180B34
:1026B0000AF00CFA0AD8A41E9FED300B53EC102B35
:1026C00051EC180B0AF061F941EC180B20460AF0A6
:1026D000D4F941EC1A0BB0EE480AF0EE680AFFF7A5
:1026E00099FFB0EE40BAF0EE60BA53EC1A2B51EC01
:1026F0001B0B0AF050F941EC190B0AF0FFF900EE40
:10270000100ABDEC088B10BDF0EE401AF4EEE01A92
:10271000F1EE10FA3ADD31EEC10AB4EEE00AF1EE64
:1027200010FA3CD2B0EE600A39E000000000000070
:102730008180803B0000804358CD0008DB0F49407A
:10274000DB0FC93FDB0FC9BFDF59375F0000000057
:1027500000000000000000602FF0D93F0000006082
:10276000305FF43F000000000000F03F000000C0B8
:10277000CCCCCCBF000000C0CCCCCC3FF1D4C853F3
:10278000FB210940F1D4C853FB21F93F31EE810A06
:10279000B4EEE00AF1EE10FA01DDB0EE600A704727
:1027A000F0EE401AB1EE412A32EE202AB4EEE12AD0
:1027B000F1EE10FA09D231EE202AB4EEE12AF1EE60
:1027C00010FA02DDB0EE600A01E0B0EE610A704777
:1027D000F0EE402AB5EEC01AF1EE10FA02DDB0EECE
:1027E000410A01E0B1EE410AB6EE003A22EE033AA8
:1027F00023EE213AB4EEC30AF1EE10FA06D29FEDB1
:10280000D40A20EE800AF0EE400A4DE0B5EEC01A80
:10281000F1EE10FA02DDB0EE410A01E0B1EE410A3C
:1028200022EE213AB4EEC30AF1EE10FA06D29FED81
:10283000C90A20EE800AF0EE400A35E0B5EEC01A73
:10284000F1EE10FA02DDB0EE410A01E0B1EE410A0C
:10285000B4EEE10AF1EE10FA06D2B6EE000A20EE6E
:10286000800AF0EE400A1FE0B5EEC01AF1EE10FA51
:1028700002DDB0EE410A01E0B1EE410AB0EE003AED
:1028800021EE833AB4EEC30AF1EE10FA06D29FEDC0
:10289000B20A20EE800AF0EE400A05E09FEDAF0A92
:1028A00020EE800AF0EE400A9FEDAD0A20EE800A8D
:1028B00020EE223AF7EE003A83EE830AB7EE003AB2
:1028C00030EE030AF7EE003A83EE803A90ED000A0C
:1028D00071EE403A90ED000A03EE230A80ED000A03
:1028E00090ED000AB1EE423A23EE213AB4EEC30A6B
:1028F000F1EE10FA04D8B1EE420A20EE210A0DE002
:1029000090ED000A22EE213AB4EEC30AF1EE10FA7D
:1029100002DD22EE210A01E090ED000A80ED000ABE
:1029200090ED000A31EE400A704710B52DED028B94
:10293000B0EE408AF0EE608A9FED8A0B53EC102BCC
:1029400051EC180B0AF0C2F80CD29FED880B53EC37
:10295000102B51EC180B0AF018F841EC100BBDECE1
:10296000028B10BD9FED830B53EC102B51EC180B19
:102970000AF094F80AD29FED7D0B53EC102B51EC2A
:10298000180B09F061FF41EC100BE8E7B0EE480AC4
:10299000F0EE680AE3E730B505460C46F0EE403A43
:1029A000D5ED000A60EEA00A94ED001AD4ED001AED
:1029B00041EE210AB0EE600AFFF790FDB0EE403A1A
:1029C000B5EEC03AF1EE10FA02D81FEDA80A09E000
:1029D000B4EEE33AF1EE10FA02DDB0EE630A01E084
:1029E000B0EE430AB0EE404AB5EEC03AF1EE10FA4E
:1029F00006D11FEDB20A83ED000A82ED000A0FE056
:102A000084EE030AD5ED000A20EE200A82ED000ACA
:102A100084EE030AD4ED000A20EE200A83ED000ABA
:102A200030BDF0EE400A0B7802EB8303C3ED000AE1
:102A30000B785B1C0B700B78834201DB00230B705F
:102A40000B7802EB830393ED000A704700B5024652
:102A5000B0EE403A0B46F7EE000A43EE430AB0EE02
:102A6000600AFFF73BFDD2ED000A20EE200AD2ED0E
:102A7000010A00EEC30A83ED000AF7EE000A43EEF6
:102A8000430AB0EE600AFFF729FDD2ED010A20EEFD
:102A9000200AD2ED000A00EE830A83ED010A00BD90
:102AA00090ED000AD1ED010A20EE200AD0ED010AD6
:102AB00091ED001A00EEC10A704790ED000AD1EDC9
:102AC000000A20EE200AD0ED010A91ED011A00EE75
:102AD000810A704790ED010AD1ED020A20EE200A2A
:102AE000D0ED020A91ED011A00EEC10A82ED000A52
:102AF00090ED020AD1ED000A20EE200AD0ED000A86
:102B000091ED021A00EEC10A82ED010A90ED000A71
:102B1000D1ED010A20EE200AD0ED010A91ED001A54
:102B200000EEC10A82ED020A704790ED000AD1ED75
:102B3000000A20EE200AD0ED010A91ED011A00EE04
:102B4000810AD0ED020A91ED021A00EE810A704767
:102B50009A99993FCDCC4C3FCDCC4C3ECDCCCC3D81
:102B6000C3F5C8400000000000806640000000007F
:102B70000080764000000000008066C008B5C648AE
:102B8000D0ED000A9FEDC51AF4EEC10AF1EE10FA7D
:102B90000BD2D0ED000AB7EE001A70EE810AC0ED3C
:102BA000000A0120BE49887002E00020BC498870FC
:102BB000B948D0ED010A9FEDB91AF4EEC10AF1EE61
:102BC00010FA0BD2D0ED010AB7EE001A70EE810AAE
:102BD000C0ED010A01208DF8000002E000208DF810
:102BE0000000AD48D0ED020A9FEDAC1AF4EEC10A28
:102BF000F1EE10FA0BD2D0ED020AB7EE001A70EE29
:102C0000810AC0ED020A01208DF8010002E00020D7
:102C10008DF801009DF8000030B19DF8010018B159
:102C200001209F49C87002E000209D49C87008BD7E
:102C300030B500220024C5788B1F9D4200D030BDE6
:102C4000002306E0C55C1544EAB2A518ECB25D1C91
:102C5000EBB28D1E9D42F5DC431813F8023C934203
:102C600004D1431813F8013CA34200D0E7E783786E
:102C7000512B38D103795BB94379894D6B718379D5
:102C80005BB2AB71C3795BB2EB71037A2B7183E0FA
:102C90000379012B12D14379814D2B72C3886B814B
:102CA0000389AB81837A2B719FED7E0A7A4B83ED8A
:102CB000010A2B461B785B1C2B706DE00379022BFD
:102CC0006AD14379764DAB73C3882B8203896B82BB
:102CD0004389AB828389EB82C3892B83038A6B830D
:102CE000837C2B7158E08378342B0DD1D0F80730DA
:102CF0006B4DEB619FED6B0A674B83ED020A2B4630
:102D00005B785B1C6B7047E08378012B0DD1838867
:102D1000634D2B86C3886B860389AB864389EB861C
:102D200083892B87C3896B8736E08378042B33D163
:102D3000B0F9043000EE103AB8EEC00ADFED5A0ADE
:102D400020EE200A564B83ED080AB0F9063000EE5B
:102D5000103AB8EEC00ADFED540A20EE200A504BBC
:102D600083ED090AB0F9083000EE103AB8EEC00A57
:102D7000DFED4D0A20EE200A494B83ED0A0AB0F937
:102D80000A3000EE103AB8EEC00ADFED470A20EE36
:102D9000200A434B83ED0B0A00BF50E710B50446F1
:102DA0004248007838B9AA2C05D101203F49087063
:102DB0003F4804706FE03D480078012809D1612C3C
:102DC00001D0FF2C05D102203849087038484470E2
:102DD00061E036480078022805D1032033490870A5
:102DE0003348847057E03148007803280CD1FA2C1E
:102DF0000ADA04202D4908702D48C4702D4804704B
:102E000000202D49087046E028480078042819D190
:102E100028480078002815DD26480078401E2549FE
:102E200008702548007824490978491C224A117005
:102E3000001D1F490C541F48007840BB05201B494A
:102E4000087028E01948007805280DD10620174998
:102E500008701948007818490978491C164A1170F9
:102E6000001D13490C5416E01048007806280FD1B5
:102E700000200E49087010480078001D0C490C54C1
:102E80000D480078401DC1B20948FFF7D1FE02E0AD
:102E900000200649087010BD980A00200000FA437F
:102EA000280A00200000000017B7D138CD0000200C
:102EB000640A0020CB000020CC0000200146D54849
:102EC000007800287ED00022D24B1A70D24A128895
:102ED000C832D14B1A80D14A127DD14B5A76CF4A93
:102EE000D37DCF4A9376CD4A9369CD4AC2F81B3041
:102EF000CA4AD369CA4AC2F81F30C84A526A0A236A
:102F000092FBF3F3C64AC2F82330C44A126B0A2379
:102F100092FBF3F213B2C24AA2F82730BF4A526BB7
:102F20000A2392FBF3F213B2BD4AA2F82930BB4A3E
:102F3000926B0A2392FBF3F213B2B94AA2F82B3038
:102F4000B64AB2F84C2000EE102AB8EE400ADFED87
:102F5000B50A20EE200ABCEEC00A10EE100A08B92D
:102F6000002204E0C82801D9C82200E00246104629
:102F7000AB4A82F82D00A94A526C00EE102AB8EE36
:102F8000400ADFEDA80A20EE200ABCEEC00A10EECF
:102F9000100A08B9002204E0C82801D9C82200E0BC
:102FA000024610469E4A82F82E009C4AD26A00EEE3
:102FB000102AB8EE400ADFED9B0A20EE200ABCEE94
:102FC000C00A00E012E010EE100A08B9002204E086
:102FD000C82801D9C82200E002461046904A82F86B
:102FE0002F000123904A82F8213100BF704710B5AD
:102FF0000E218E4800F0C2FE10BD10B50E218C4887
:1030000000F0BCFE10BD10B5642000F0D3F94FF401
:10301000165000F038FE322000F0CCF91C21854813
:1030200000F0ACFE642000F0C5F94FF4964000F0CB
:103030002AFE322000F0BEF91C217E4800F09EFEE0
:10304000642000F0B7F94FF4164000F01CFE322067
:1030500000F0B0F91C21774800F090FE642000F0E9
:10306000A9F94FF4E13000F00EFE142000F0A2F9AF
:103070000B21714800F082FE142000F09BF90B2117
:103080006E4800F07BFE142000F094F90B216C4890
:1030900000F074FE142000F08DF90B21694800F057
:1030A0006DFE142000F086F90B21674800F066FEE3
:1030B000142000F07FF90B21644800F05FFE14201B
:1030C00000F078F9FFF793FF10BD10B5014600201E
:1030D00000225F4B1B782BB9B52903D101235C4C2F
:1030E000237095E05A4B1B78012B05D1622903D13F
:1030F0000223574C23708BE0554B1B78022B05D1D4
:103100000323534C2370534B197081E0504B1B78B1
:10311000032B05D104234E4C23704F4B197077E0DD
:103120004B4B1B78042B05D10523494C23704B4B8B
:1031300019706DE0464B1B78052B10D10623444CCB
:103140002370464B1B7803EB0123454C2380234619
:103150001B88622B5CDB00233D4C237058E03C4B0A
:103160001B78062B54DB3A4B1B789B1F3C4C248866
:10317000A41CA3420ADA364B1B789B1F274CE15450
:10318000334B1B785B1C324C237041E0314B1B7876
:103190000344D8B21318DAB22F4B1B780344D8B2C9
:1031A0001318DAB22E4B1B780344D8B21318DAB2D4
:1031B0002B4B1B8800EB1323D8B21318DAB2002371
:1031C00007E0164CE45C0444E0B21418E2B25C1C64
:1031D000E3B2234C2488A342F3DB104B204C248819
:1031E0001B5D834211D10D4C1D4B1B885B1CE35CA6
:1031F00093420AD1174B1B78012B06D1164B1B7833
:10320000072B02D10123034C23700023104C2370A1
:1032100010BD0000CE000020D0000020A40A002035
:10322000800900200AD7233C2C020020D200002075
:10323000E00000200A0100203B01002046010020A0
:10324000510100205C010020670100207201002074
:10325000830100207D0100207E0100207F010020ED
:1032600080010020704700BFFEE700BFFEE700BFFF
:10327000FEE77047704710B5802003F08EFF10B155
:10328000802003F0E0FF10BD10B500F01BFC10BD66
:10329000704710B50121114807F075FE28B10121D2
:1032A0000E4807F0CDFEFEF7BBF910BD10B500F0DB
:1032B000ADFD10BD10B500F09EFE10BD10B501F0C3
:1032C00064F810BD10B501F07DF910BD10B501F026
:1032D00068FA10BD10B500F071FC10BD001400407C
:1032E0007FB5684604F08BFE4FF47A710198B0FB0D
:1032F000F1F4E4082146B1F1807F00D31DE021F014
:103300007F40401E4FF0E022506150170F220028EE
:1033100007DA13071E0E314B00F00F052D1F5E5507
:1033200003E013071D0E2E4B1D5400BF00204FF06D
:10333000E02290610720106100BF6FF0040001F0EF
:103340005FFC7FBD2748D0E900305A1C40F10000E7
:103350002449C1E90020704722480068704710B531
:1033600000BF204A11684FF0E02252694FF0E0237D
:103370009B69D21A4FF47A735A434FF0E0235B698A
:10338000B2FBF3F201EB4103C3EBC11302EBC30049
:10339000144C18CC4B402343E3D110BD30B5044648
:1033A000FFF7DDFF054600BFFFF7D9FF401BA04236
:1033B000FAD330BD10B5044603E04FF47A70FFF73E
:1033C000EDFF201EA4F10104F7D110BD10B54FF49C
:1033D000806001F063FBFFF783FF10BD18ED00E094
:1033E00000E400E08801002000B58FB0684602F0DC
:1033F00060FE0121880504F01AFF00BF564803F063
:1034000075F90028FAD10090544801905448029070
:103410000020039032200490002005904FF480603B
:103420000690400007908000089000010A9040122A
:10343000099000200B9001200C9000200D900E9020
:103440006946454802F0DFFC0121434802F042FE94
:103450000FB000BD00B58DB001A801F0D3FC012173
:10346000042004F0E4FE0121080204F0C6FFFFF787
:10347000BBFF03208DF8300020200B9000208DF83A
:1034800033000BA9374803F083FF00200990079011
:103490004FF48030089000200A9007A801F0BCFC8F
:1034A000002001908DF8080001208DF8090000200F
:1034B0000390059001208DF8180001A927484C3889
:1034C00001F0D7FB072301220F2124484C3801F0DB
:1034D00068FE012121484C3802F041F801211F48C3
:1034E0004C3801F04AFD01211C484C3802F011F81B
:1034F0001A484C3801F021FF0DB000BD9FED1A0AAB
:10350000F0EE400A002010E0154931F8101000EEEE
:10351000101AB8EE401ADFED151AB0EE600A01EE8F
:10352000210AF0EE400A411CC8B23228ECDB9FEDC4
:10353000101A80EE810A9FED0F1A20EE010AB2EEFA
:10354000061A20EE010AF7EE001A80EE211A9FED0E
:103550000A0A21EE000A7047106402404C20014024
:10356000080B002000080240000000000AD7A33C1E
:103570000000804500404E456F12833A1CB56846F6
:1035800003F0B1FF0121102004F051FE01208DF85D
:1035900004008DF8070000208DF8060002208DF849
:1035A0000500072000906946384803F0F1FE01202D
:1035B0008DF804008DF8060002208DF805008020AB
:1035C00000906946314803F0E3FE02212F4804F0E1
:1035D00015F901212D4804F011F904212B4804F0BC
:1035E0000DF98021294804F009F91CBD00F0010102
:1035F00019B10221254A118302E00221234A518395
:1036000000F0020119B10121204A118302E00121D9
:103610001E4A518300F0040119B104211B4A118391
:1036200002E00421194A518300F0080119B18021F8
:10363000164A518302E08021144A1183704700B575
:1036400000201DE0124931F81010124A1256914222
:1036500004DA0121814019438BB202E0012181404B
:103660008B430B4931F81010491C89B2084A22F8E3
:103670001010142902DB002122F81010411CC8B2DE
:103680000428DFDB1846FFF7B1FF00BD0010024041
:10369000940100209001002030B58BB00025D44C5F
:1036A00001A803F020FF08A805F02DFA03A806F0F2
:1036B00066F8012C01D8012004E0CE48844200D9EC
:1036C00000E0204604460121082004F073FE012199
:1036D000022004F092FE0121084604F08EFE012132
:1036E000152004F0A4FD0C20019002208DF80800A4
:1036F00003208DF8090000208DF80A0001208DF8C4
:103700000B0001A9BC4803F043FE02221146BA484F
:1037100004F052F902220321B74804F04DF9B748EA
:1037200000684008B0FBF4F0401E85B242F2107011
:103730000990ADF820500020ADF82800ADF8220027
:1037400008A9AF4805F054F96020ADF80C0000203E
:10375000ADF818000120ADF80E004FF47A60059026
:1037600003A9A74805F0B2FE0821A54806F07BFA98
:103770000120ADF80E004FF47A60059003A9A0482F
:1037800005F06CFF08219E4806F099FA01219C483B
:1037900005F0B3FB01219A4805F09BFC4FF4D4409F
:1037A000019002208DF8080003208DF80900002008
:1037B0008DF80A0001208DF80B0001A9914803F053
:1037C000E7FD012209218F4804F0F6F801220B21C0
:1037D0008C4804F0F1F801220D218A4804F0ECF83D
:1037E00001220E21874804F0E7F884480068B0FB06
:1037F000F4F0401E85B242F210700990ADF82050EE
:103800000020ADF82800ADF822008DF82A0008A9A4
:103810007D4805F0EDF86020ADF80C000020ADF813
:103820001000ADF818000820ADF81A004001ADF8FE
:103830001C000020ADF81E000120ADF80E004FF472
:103840007A60059003A9704805F08BFC08216E484A
:1038500006F095F94FF47A60059003A96A4805F0DF
:1038600048FD0821684806F0C8F94FF47A600590D1
:1038700003A9654805F02AFE0821634806F0F3F91C
:103880004FF47A60059003A95F4805F0E7FE082130
:103890005D4806F014FA01215B4807F0C6F90121E2
:1038A000594805F02AFB0121574805F012FC4FF456
:1038B0004070019002208DF8080003208DF8090067
:1038C00000208DF80A0001208DF80B0001A94F4857
:1038D00003F05EFD032208214C4804F06DF803223A
:1038E00009214A4804F068F844480068B0FBF4F045
:1038F000401E85B242F210700990ADF820500020B1
:10390000ADF82800ADF822008DF82A0008A940483B
:1039100005F06EF86020ADF80C000020ADF8100046
:10392000ADF818000820ADF81A004001ADF81C00F1
:103930000020ADF81E004FF47A60059003A93448CA
:1039400005F0C4FD0821304806F08DF94FF47A6087
:10395000059003A92E4805F081FE08212A4806F0AB
:10396000AEF901212A4807F060F90121284805F045
:10397000C4FA0121264805F0ACFB0BB030BDB0F90C
:103980000010890001F57A611F4A1164B0F9021034
:10399000890001F57A61D163B0F90410890001F55D
:1039A0007A619163B0F90610890001F57A6151637B
:1039B000B0F90810890001F57A61114A40321160AE
:1039C000B0F90A10890001F57A61121F1160B0F98F
:1039D0000C10890001F57A610D4A40321160B0F98E
:1039E0000E10890001F57A61121F11607047000006
:1039F00000093D0000BD010500000240C801002093
:103A0000000C00400010024000000140000802408D
:103A10000004014000B587B005A803F064FD02A8CA
:103A200006F085FF0121022004F0C4FC01210420DE
:103A300004F0FDFB1D208DF8040002208DF8050028
:103A400001208DF806008DF8070001A801F041F86B
:103A50008020059002208DF8180003208DF81900B1
:103A600000208DF81A0002208DF81B0005A95D4882
:103A700003F08EFC022207215A4803F09DFF5320D9
:103A8000594908800420ADF808000A20ADF80A0062
:103A90000120ADF80C000020ADF80E00ADF81000CC
:103AA00002A95148283806F05CFE01214E4828380A
:103AB00005F00FFB012204214B48283807F024F9B8
:103AC00007B000BD10B548481838008800F0040061
:103AD00000B34FF6FB704449183908804FF6FF30A9
:103AE000088040481030006800F0800090B93E48DF
:103AF000283806F0C8FF3D490880084600884988F4
:103B0000401A84B22046FEF7CAF93848008837497F
:103B1000488000BF10BD00B587B0684603F0E3FCE5
:103B20000121202004F069FC0121042004F07FFB26
:103B300047208DF8080004208DF8090001208DF839
:103B40000A008DF80B0002A800F0C3FF082207212D
:103B5000244803F031FF8020009002208DF80400FB
:103B60008DF8050001208DF8060000208DF8070073
:103B700069461C4803F00CFC1D4803900020ADF87A
:103B800010004FF40050ADF81200C010ADF8140052
:103B90000020ADF818000420ADF8160003A9154860
:103BA00007F0A5FF012240F22551124808F03BFC26
:103BB0000121104808F0E4F807B000BD10B540F24C
:103BC00025510C4808F055FD58B140F225510948DF
:103BD00008F0DAFD0748001D0088C4B22046FEF751
:103BE0008CF910BD00080240280400409C01002010
:103BF000A0860100001401403EB5044601212020AA
:103C000004F0D8FB1E4804F017FE01945320ADF8D1
:103C100000000020ADF80800ADF802006946184821
:103C200004F0E6FE0121164807F077F9012211465B
:103C3000134807F069F80121114805F04AFA0021FC
:103C4000202004F0B7FB3EBD08B537208DF80000FA
:103C500007208DF8010001208DF802008DF8030087
:103C6000684600F036FF08BD10B54FF47A70FFF7D4
:103C7000C3FFFFF7E9FF0121202004F09BFB10BDEB
:103C800000140040704710B58AB0044606A808F03A
:103C900012F80121102004F0B0FB0121084604F0C5
:103CA000C6FA25208DF80C0003208DF80D000020A9
:103CB0008DF80E0001208DF80F0003A800F009FF19
:103CC00007220921FE4803F077FE07220A21FC485B
:103CD00003F072FE4FF40070019002208DF808008E
:103CE0008DF8090000208DF80A0001208DF80B00E6
:103CF00001A9F34803F04CFB4FF4806001900220CF
:103D00008DF808008DF8090001208DF80A000020C8
:103D10008DF80B0001A9EA4803F03AFBE94807F0E7
:103D200081FE06940020ADF81C00ADF81E00ADF831
:103D30002000ADF824000C20ADF822000020ADF8E2
:103D40001000ADF812004FF40070ADF81400002020
:103D5000ADF8160006A9DB4807F0C9FE04A9D9484A
:103D600007F0B5FF012240F22551D64808F05BFB71
:103D70000121D44808F004F80AB010BD70B505461A
:103D80000E4600240AE0295DCF4802780078401CE6
:103D9000CD4B1870CD488154601CC4B2B442F2DBE4
:103DA000C848808900F0800028B9012240F22771BC
:103DB000C44808F038FB70BDC5490A780978491C29
:103DC000C34B1970C349885419460978642902DB2A
:103DD00000211A461170704710B510E0BE490A78EC
:103DE0000978491CBC4B1970BA49885CFFF76DF91A
:103DF000B9480078642802DB0020B7490870B4484D
:103E00000078B54909788842E8D110BD10B5AD48B1
:103E1000008800F0080010B1AA488088C4B240F2BF
:103E20002551A84808F025FC50B140F22551A5487D
:103E300008F0AAFCA3488088C4B22046FFF7BCFF64
:103E400040F227719F4808F014FCA8B1A3480178FC
:103E50000078401CA14A10709C48405C99498880B9
:103E60001046007898490978884205D1954880899C
:103E700020F080009349888110BD10B58AB00446B7
:103E800006A807F018FF0121480404F093FA012165
:103E9000082004F0CCF926208DF80C0004208DF8C1
:103EA0000D0001208DF80E008DF80F0003A800F022
:103EB00010FE072205218A4803F07EFD0722062115
:103EC000874803F079FD2020019002208DF808003A
:103ED0008DF8090000208DF80A0001208DF80B00F4
:103EE00001A97F4803F054FA4020019002208DF888
:103EF00008008DF8090001208DF80A0000208DF8D7
:103F00000B0001A9764803F043FA06940020ADF8AF
:103F10001C00ADF81E00ADF82000ADF824000C2008
:103F2000ADF822000020ADF81000ADF812004FF4FB
:103F30000070ADF814000020ADF8160006A969481D
:103F400007F0D5FD04A9674807F0C1FE012240F241
:103F50002551644808F067FA0121624807F010FF14
:103F60000AB010BD70B505460E4600240AE0295D72
:103F70005D4802780078401C5B4B18705B488154A8
:103F8000601CC4B2B442F2DB56480C30008800F02A
:103F9000800028B9012240F22771524808F043FA04
:103FA00070BD53490A780978491C514B1970514921
:103FB000885419460978642902DB00211A461170D9
:103FC000704700B510E04C490A780978491C4A4B03
:103FD00019704849885CFFF755FE47480078642807
:103FE00002DB0020444908704148007842490978C2
:103FF0008842E8D100BD10B53A48008800F00800BA
:1040000018B13848001D0088C4B240F22551354827
:1040100008F02FFB58B140F22551324808F0B4FBAC
:104020003048001D0088C4B22046FFF7BAFF40F2B6
:1040300027712C4808F01DFBC0B13048017800788A
:10404000401C2E4A10702948405C2649091D0880F2
:104050001046007824490978884207D121480C305D
:10406000008820F080001F490C31088010BD10B579
:104070008AB0044606A807F01EFE0121880404F059
:1040800099F90121022004F0D2F827208DF80C00C4
:1040900002208DF80D0000208DF80E0001208DF813
:1040A0000F0003A800F015FD07220A21144803F0B1
:1040B00083FC07220B21124803F07EFC22E0000063
:1040C0000000024000100140AF0100206C0B0020F6
:1040D000B00100206C0C0020B1010020AE010020D6
:1040E000000C024000440040B3010020D00C00202E
:1040F000B4010020D00D0020B5010020B201002045
:10410000000402404FF48060019002208DF8080006
:104110008DF8090000208DF80A0001208DF80B00B1
:1041200001A9F94803F034F94FF40060019002202E
:104130008DF808008DF8090001208DF80A00002094
:104140008DF80B0001A9F04803F022F90694002035
:10415000ADF81C00ADF81E00ADF82000ADF824004D
:104160000C20ADF822000020ADF81000ADF81200D0
:104170004FF40070ADF814000020ADF8160006A949
:10418000E24807F0B4FC04A9E04807F0A0FD0122D2
:1041900040F22551DD4808F046F90121DB4807F0DF
:1041A000EFFD0AB010BD70B505460E4600240AE0CA
:1041B000295DD74802780078401CD54B1870D54847
:1041C0008154601CC4B2B442F2DBD0480C30008889
:1041D00000F0800028B9012240F22771CB4808F096
:1041E00022F970BDCC490A780978491CCA4B19706C
:1041F000CA49885419460978642902DB00211A4605
:10420000117070470279C64B1A704279C54B1A700B
:10421000427AC54B1A70827AC37A42EA032212B2FA
:10422000C24B1A80827CC37C42EA032212B2C04B8A
:104230001A80027D437D42EA032212B2BD4B1A80EE
:10424000027EBD4B1A70427EBC4B1A70827EBC4B04
:104250001A700122BB4B1A70704710B50446BA4859
:10426000007838B9AA2C05D10120B7490870B748A1
:1042700004706FE0B4480078012807D1AF2C05D155
:104280000220B1490870B148447063E0AE4800783C
:10429000022807D1302C05D10320AB490870AB4868
:1042A000847057E0A848007803280CD1172C0AD155
:1042B0000420A5490870A548C470A54804700020D2
:1042C000A449087046E0A0480078042819D1A04805
:1042D0000078002815DD9E480078401E9C49087033
:1042E0009C4800789B490978491C9A4A1170001D26
:1042F00096490C549648007840BB052092490870B6
:1043000028E09148007805280DD106208E490870D4
:10431000904800788F490978491C8E4A1170001D19
:104320008A490C5416E08848007806280FD10020EE
:104330008549087087480078001D84490C548548D9
:104340000078401DC1B28148FFF75CFF02E0002009
:104350007D49087010BD00B510E07F490A780978E2
:10436000491C7D4B19706D49885CFFF78BFC7A48BE
:104370000078642802DB00207749087066480078DE
:10438000754909788842E8D100BD10B55F480088BA
:1043900000F0080018B15D48001D0088C4B240F26A
:1043A00025515A4808F065F958B140F2255157484F
:1043B00008F0EAF95548001D0088C4B22046FFF70E
:1043C0004CFF40F22771514808F053F9C0B16348DF
:1043D00001780078401C614A10704E48405C4B499F
:1043E000091D08801046007849490978884207D19C
:1043F00046480C30008820F0800044490C31088089
:1044000010BD10B588B0044604A807F054FC012183
:10441000C80403F0CFFF0121084603F008FF342051
:104420008DF80C0003208DF80D0001208DF80E0092
:104430008DF80F0003A800F04CFB0822002148482B
:1044400003F0BAFA08220121454803F0B5FA012029
:10445000019002208DF808008DF8090000208DF8E9
:104460000A0001208DF80B0001A93D4802F090FFE1
:10447000022001908DF808008DF8090001208DF8C8
:104480000A0000208DF80B0001A9354802F080FFDA
:1044900004940020ADF81400ADF81600ADF8180033
:1044A000ADF81C000C20ADF81A0004A92D4807F047
:1044B0001EFB012240F225512A4807F0B4FF0121DA
:1044C000284807F05DFC08B010BD70B505460E46E3
:1044D00000240AE0295D244802780078401C224B21
:1044E000187022488154601CC4B2B442F2DB1D48EB
:1044F0000C30008800F0800028B9012240F22771BA
:10450000184807F090FF70BD0004024000480040CA
:10451000B7010020340E0020B8010020340F002025
:10452000A0010020A1010020A2010020A401002080
:10453000A6010020A8010020AA010020AB01002054
:10454000AC010020AD010020C4010020980F002024
:10455000C2010020C3010020B9010020B6010020E3
:1045600000000240004C0040BB010020CA0F0020A8
:10457000AD490A780978491CAB4B1970AB4988548E
:1045800019460978642902DB00211A461170704728
:1045900010B510E0A6490A780978491CA44B197097
:1045A000A249885CFEF7FAFBA1480078642802DB88
:1045B00000209F4908709C4800789D4909788842EE
:1045C000E8D110BD10B59B48008800F0080018B174
:1045D0009848001D0088C4B240F22551954808F063
:1045E00048F858B140F22551924808F0CDF891486A
:1045F000001D0088C4B22046FFF7BAFF40F22771C1
:104600008C4808F036F8C0B18B4801780078401C1F
:10461000894A10708948405C8649091D0880104607
:10462000007887490978884207D182480C30008891
:1046300020F080007F490C31088010BD10B588B093
:10464000044604A807F037FB0121080503F0B2FE79
:104650000121042003F0EBFD0121082003F0E7FD18
:1046600035208DF80C0001208DF80D0000208DF80C
:104670000E0001208DF80F0003A800F02AFA08228E
:104680000C21704803F098F9082202216E4803F0CB
:1046900093F94FF48050019002208DF808008DF8B6
:1046A000090000208DF80A0001208DF80B0001A9F7
:1046B000644802F06DFE0420019002208DF808008D
:1046C0008DF8090001208DF80A0000208DF80B00FC
:1046D00001A95D4802F05CFE04940020ADF81400CE
:1046E000ADF81600ADF81800ADF81C000C20ADF8C0
:1046F0001A0004A9554807F0FAF9012240F22551A1
:10470000524807F090FE0121504807F039FB08B0ED
:1047100010BD70B505460E4600240AE0295D4C48E0
:1047200002780078401C4A4B18704A488154601C3B
:10473000C4B2B442F2DB4548808900F0800028B959
:10474000012240F22771414807F06DFE70BD4249D9
:104750000A780978491C404B197040498854194619
:104760000978642902DB00211A461170704710B5E0
:1047700010E03B490A780978491C394B19703749D0
:10478000885CFCF760FA36480078642802DB002079
:104790003349087030480078314909788842E8D1B7
:1047A00010BD10B52948008800F0080010B1274856
:1047B0008088C4B240F22551244807F05AFF50B116
:1047C00040F22551214807F0DFFF20488088C4B21D
:1047D0002046FFF7BCFF40F227711C4807F049FF55
:1047E000A8B1204801780078401C1E4A1070194872
:1047F000405C16498880104600781549097888423F
:1048000005D11248808920F080001049888110BDB0
:1048100010B5FFF7E1FAFFF7D4FBFFF79CFDFFF7B8
:10482000B7FEFFF7A4FF10BDBC010020CA10002096
:10483000BD010020004C0040BA010020CA0F00203A
:10484000BB01002000080240000C02400050004064
:10485000BF0100202E110020C00100202E120020D8
:10486000C1010020BE0100200648804706480047DD
:10487000FEE7FEE7FEE7FEE7FEE7FEE7FEE7FEE710
:10488000FEE7FEE769490008890100080CB5002031
:10489000019000907648006840F4803074490860C8
:1048A00000BF7348006800F4003000900198401C7D
:1048B0000190009818B90198B0F5A06FF1D16C483B
:1048C000006800F4003010B10120009001E00020E9
:1048D00000900098012846D165484030006840F0BB
:1048E00080506349403108606248006840F480406D
:1048F000604908605E48083000685D49083108601A
:104900000846006840F4004008600846006840F42B
:10491000A05008605848091F0860081F006840F050
:104920008070091F086000BF5148006800F00070E7
:104930000028F9D040F20560504908604C48083022
:10494000006820F003004A49083108600846006802
:1049500040F00200086000BF45480830006800F0E1
:104960000C000828F8D10CBD10B54548006840F48B
:104970007000434908603E48006840F001003C492F
:10498000086000203A4908310860394800683D490C
:104990000840374908603C48091D0860081F006846
:1049A00020F48020091F0860002031490C31086084
:1049B000FFF76CFF4FF0006031498039086010BD8F
:1049C00070B500200022022300240221284D083562
:1049D0002D6805F00C0020B1042806D0082834D139
:1049E00007E02A4D2A4E356033E02A4D284E3560C7
:1049F0002FE01F4D2D1D2D68C5F380541C4D2D1D1E
:104A00002D6805F03F0154B1224DB5FBF1F5184E6C
:104A1000361D3668C6F3881605FB06F209E01B4D05
:104A2000B5FBF1F5124E361D3668C6F3881605FB48
:104A300006F20F4D2D1D2D68C5F301456D1C6B0051
:104A4000B2FBF3F5124E356003E0104D104E3560A9
:104A500000BF00BF064D08352D68C5F303150E4E87
:104A6000705D0B4D2D68C540094E356070BD00006E
:104A7000003802400070004008544007003C0240EB
:104A800088ED00E0FFFFF6FE103000240024F40063
:104A9000C801002000127A00CC01002010B50446A5
:104AA000B4F5E06F0BD0B4F5C06F08D0B4F5A06FCB
:104AB00005D0B4F5806F02D0B4F5407F00D103E09B
:104AC00073215F48FBF76CFB5E4820435E4908603A
:104AD00010BD2DE9F0410446002500270F26E0789F
:104AE00010B1E078012800D103E087215448FBF79A
:104AF00057FB6078102800DA03E088215048FBF764
:104B00004FFBA078102800DA03E089214C48FBF71E
:104B100047FBE07818B34C48006800F4E060C0F54B
:104B2000E060C0F30725C5F10400C7B22E416078EC
:104B3000B840C5B2A078304005432807050E434869
:104B400021784554207800F01F0101208840217809
:104B50004911890001F1E021C1F8000109E0207844
:104B600000F01F010120884039492278521141F894
:104B70002200BDE8F08170B504460D46B4F1005F37
:104B800002D0B4F1006F00D103E0B1212C48FBF753
:104B900007FB3048854200D203E0B2212848FBF7EA
:104BA000FFFA2D4905EA010020432749091F086043
:104BB00070BD70B504460D46102C03D0042C01D0F6
:104BC000022C00D103E0C4211D48FBF7E9FA0DB126
:104BD000012D00D103E0C5211948FBF7E1FA3DB1F1
:104BE0001948001D006820431749091D086006E0A8
:104BF0001548001D0068A0431349091D086070BDD9
:104C000010B50446042C01D0601D00B903E0DC217E
:104C10000B48FBF7C5FA042C08D14FF0E0200069DF
:104C200040F004004FF0E021086107E04FF0E02081
:104C3000006920F004004FF0E021086110BD000081
:104C40005CD100080000FA050CED00E000E400E093
:104C500080E100E0FFFF0F0080FFFF1F10B5012182
:104C6000080203F08DFC00214FF4807003F088FCF3
:104C700010BD2DE9F04105460C4600260027F748F7
:104C8000854205D0F648854202D0F648854200D1DB
:104C900003E0E921F448FBF783FA206858B1206863
:104CA000B0F1807F07D02068B0F1007F03D020688A
:104CB000B0F1407F00D103E0EA21EB48FBF770FA46
:104CC000207910B12079012800D103E0EB21E648DA
:104CD000FBF766FA607910B16079012800D103E032
:104CE000EC21E148FBF75CFAA06858B1A068B0F18C
:104CF000805F07D0A068B0F1005F03D0A068B0F17A
:104D0000405F00D103E0ED21D748FBF749FAE068A6
:104D1000D8B3E068B0F1807F37D0E068B0F1007FB1
:104D200033D0E068B0F1407F2FD0E068B0F1806F01
:104D30002BD0E068B0F1A06F27D0E068B0F1C06F71
:104D400023D0E068B0F1E06F1FD0E068B0F1006FF1
:104D50001BD0E068B0F1106F17D0E068B0F1206FA1
:104D600013D0E068B0F1306F0FD0E068B0F1406F61
:104D70000BD0E068B0F1506F07D0E068B0F1606F21
:104D800003D0E068B0F1706F00D103E0EE21B648C7
:104D9000FBF706FA206918B12069B0F5006F00D161
:104DA00003E0EF21B048FBF7FBF9207D012803DB8E
:104DB000207D102800DC03E0F021AB48FBF7F0F980
:104DC0006E68AA4806402179206840EA012006431F
:104DD0006E60AE68A6480640D4E903100843A16897
:104DE0000843617940EA41000643AE60EE6A26F46A
:104DF0007006207D401EC0B2074346EA0756EE62A9
:104E0000BDE8F08100210160017141718160C160E4
:104E1000016101210175704770B5044600252068C5
:104E200018B32068012820D0206802281DD02068EF
:104E300005281AD02068062817D02068072814D023
:104E40002068092811D0206811280ED02068122867
:104E50000BD02068152808D02068162805D02068B7
:104E6000172802D02068192800D104E04FF4A97156
:104E70007D48FBF795F9606858B16068B0F5803FF0
:104E800007D06068B0F5003F03D06068B0F5403FE0
:104E900000D104E040F253117348FBF781F9A06898
:104EA00058B1A068B0F5804F07D0A068B0F5004FAA
:104EB00003D0A068B0F5404F00D104E04FF4AA71D0
:104EC0006948FBF76DF9E068D8B3E068B0F5807F1A
:104ED00037D0E068B0F5007F33D0E068B0F5407FB0
:104EE0002FD0E068B0F5806F2BD0E068B0F5A06FF0
:104EF00027D0E068B0F5C06F23D0E068B0F5E06F70
:104F00001FD0E068B0F5006F1BD0E068B0F5106FFF
:104F100017D0E068B0F5206F13D0E068B0F5306FBF
:104F20000FD0E068B0F5406F0BD0E068B0F5506F7F
:104F300007D0E068B0F5606F03D0E068B0F5706F3F
:104F400000D104E040F255114748FBF729F94948E0
:104F5000056849480540D4E900010843A1680843B1
:104F6000E168084305433D48C0F8045370BD002183
:104F7000016041608160C160704770B504460D46B4
:104F80003648844205D03648844202D035488442AF
:104F900000D104E040F28B113348FBF701F90DB169
:104FA000012D00D104E04FF4C6712F48FBF7F8F84B
:104FB00025B1A06840F00100A06003E0A06820F0E7
:104FC0000100A06070BD70B505460C460026234860
:104FD000854205D02248854202D02248854200D130
:104FE00004E04FF4E3712048FBF7DAF823488442E9
:104FF0000FD0234884420CD02248844209D0B4F513
:10500000000F06D0B4F5800F03D0B4F5400F00D0E8
:1050100004B904E040F2C7111348FBF7C1F86E6809
:105020001848C043064026436E6070BD70B5044604
:105030000E4615460948844205D00948844202D0EC
:105040000848844200D104E040F2E3110648FBF72F
:10505000A7F8B6F5805F17DA1BE0000000200140DA
:105060000021014000220140A4D10008FFFEFFFC06
:10507000FDF7FFC004230140E030FCFF0002800088
:10508000000240000002C0004FF4F271FD48FBF73F
:1050900087F8B5F5805F00DA04E040F2E511F948E1
:1050A000FBF77EF86662A56270BD70B505460C46DA
:1050B0000026F548854205D0F448854202D0F448E0
:1050C000854200D104E04FF40371EE48FBF768F825
:1050D0001CB3012C21D0022C1FD0032C1DD0042C7A
:1050E0001BD0052C19D0062C17D0072C15D0082C56
:1050F00013D0092C11D00A2C0FD00B2C0DD00C2C56
:105100000BD00D2C09D00E2C07D00F2C05D0102C55
:1051100003D0112C01D0122C00D104E040F20D215B
:10512000D848FBF73DF86E6826F01F0626436E60F0
:1051300070BD10B504460CB1012C00D104E04FF451
:105140001371D048FBF72CF83CB1D248006840F40A
:105150000000CD49C1F8040306E0CE48006820F401
:105160000000C949C1F8040310BD10B504460CB1D4
:10517000012C00D104E040F26221C248FBF710F894
:105180003CB1C448006840F48000BF49C1F8040342
:1051900006E0C048006820F48000BB49C1F8040361
:1051A00010BD2DE9F04706460C46174698460025E7
:1051B000A946B548864205D0B448864202D0B448D4
:1051C000864200D104E04FF43271AE48FAF7E8FFAE
:1051D0001CB3012C21D0022C1FD0032C1DD0042C79
:1051E0001BD0052C19D0062C17D0072C15D0082C55
:1051F00013D0092C11D00A2C0FD00B2C0DD00C2C55
:105200000BD00D2C09D00E2C07D00F2C05D0102C54
:1052100003D0112C01D0122C00D104E040F2C9219E
:105220009848FAF7BDFF012F02DB102F00DC04E0E5
:1052300040F2CA219348FAF7B3FFB8F1000F14D037
:10524000B8F1010F11D0B8F1020F0ED0B8F1030F71
:105250000BD0B8F1040F08D0B8F1050F05D0B8F1A4
:10526000060F02D0B8F1070F00D104E040F2CB21C5
:105270008448FAF795FF092C13DDF568A4F10A00BC
:1052800000EB4001072000FA01F925EA0905A4F125
:105290000A0000EB400008FA00F945EA0905F5604C
:1052A0000EE0356904EB4401072000FA01F925EA14
:1052B000090504EB440008FA00F945EA09053561DF
:1052C000072F11DA756B781E00EB80011F2000FAA2
:1052D00001F925EA0905781E00EB800004FA00F9BF
:1052E00045EA0905756326E00D2F11DA356BF81FC5
:1052F00000EB80011F2000FA01F925EA0905F81FDB
:1053000000EB800004FA00F945EA0905356312E074
:10531000F56AA7F10D0000EB80011F2000FA01F9EA
:1053200025EA0905A7F10D0000EB800004FA00F959
:1053300045EA0905F562BDE8F08710B50446524814
:10534000844205D05148844202D05148844200D161
:1053500004E040F23F314B48FAF722FFA06840F0EA
:105360008040A06010BD70B50446002546488442C8
:1053700005D04648844202D04548844200D104E02A
:1053800040F24E313F48FAF70BFFA06800F480006E
:1053900008B1012500E00025284670BD70B504461F
:1053A0000D463948844205D03848844202D03848F6
:1053B000844200D104E040F26B313248FAF7F0FE4B
:1053C0000DB1012D00D104E04FF45B712D48FAF7C7
:1053D000E7FE25B1A06840F48060A06003E0A0680B
:1053E00020F48060A06070BD70B504460D4626486C
:1053F000844205D02548844202D02548844200D109
:1054000004E04FF461711F48FAF7CAFE0DB1012D97
:1054100000D104E040F285311A48FAF7C1FE25B107
:10542000A06840F00200A06003E0A06820F0020045
:10543000A06070BD2DE9F04104460D46002600270E
:105440001148844205D01148844202D01048844259
:1054500000D104E040F2A1310A48FAF7A1FE012D83
:1054600002DB082D00DC04E040F2A2310548FAF727
:1054700097FE666826F460466F1E46EA4736666009
:10548000BDE8F081A4D100080020014000210140C6
:10549000002201400423014070B504460D46F9483E
:1054A000844205D0F848844202D0F848844200D1B2
:1054B00004E040F2BE31F648FAF772FE0DB1012D5C
:1054C00000D104E040F2BF31F148FAF769FE25B19E
:1054D000606840F40060606003E0606820F4006091
:1054E000606070BD10B50446E648844205D0E648C9
:1054F000844202D0E548844200D104E040F2D53134
:10550000E348FAF74DFEE06C80B210BDE148006858
:10551000704770B504460D46DA48844205D0DA4833
:10552000844202D0D948844200D104E040F21B41B9
:10553000D748FAF735FE0DB1012D00D104E040F255
:105540001C41D348FAF72CFE25B1A06840F48070C6
:10555000A06003E0A06820F48070A06070BD70B50A
:1055600004460D46C748844205D0C748844202D04D
:10557000C648844200D104E040F23341C448FAF7FF
:105580000FFE0DB1012D00D104E040F23441C048BE
:10559000FAF706FE25B1A06840F40070A06003E0B1
:1055A000A06820F40070A06070BD10B504460CB176
:1055B000012C00D104E040F24E41B548FAF7F0FD6D
:1055C00044B1B448001F006840F40050AD49C1F830
:1055D000040307E0AF48001F006820F40050A94909
:1055E000C1F8040310BD2DE9F04706460C4691466C
:1055F0001D460027B846BA46A248864205D0A248B2
:10560000864202D0A148864200D104E040F2A64181
:105610009F48FAF7C5FD1CB3012C21D0022C1FD0E6
:10562000032C1DD0042C1BD0052C19D0062C17D010
:10563000072C15D0082C13D0092C11D00A2C0FD010
:105640000B2C0DD00C2C0BD00D2C09D00E2C07D010
:105650000F2C05D0102C03D0112C01D0122C00D10E
:1056600004E040F2A7418A48FAF79AFDB9F1010F28
:1056700003DBB9F1040F00DC04E04FF495618448CA
:10568000FAF78EFD6DB1012D0BD0022D09D0032D3F
:1056900007D0042D05D0052D03D0062D01D0072DF0
:1056A00000D104E040F2A9417948FAF779FD092CCC
:1056B00013DDF768A4F10A0000EB4001072000FAAF
:1056C00001F827EA0807A4F10A0000EB400005FAF8
:1056D00000F847EA0807F7600EE0376904EB440179
:1056E000072000FA01F827EA080704EB440005FA4E
:1056F00000F847EA08073761B76BC7F3015A09F1A9
:1057000003000AF10101401A00EB80011F2000FA9A
:1057100001F827EA080709F103000AF10101401A1C
:1057200000EB800004FA00F847EA0807B763BDE819
:10573000F0872DE9F04104460D4600260027514828
:10574000844205D05048844202D05048844200D15F
:1057500004E040F2E6414E48FAF722FD012D02DB5B
:10576000042D00DC04E040F2E7414948FAF718FD57
:10577000A66B26F440166F1E46EA0756A663BDE8E0
:10578000F081F8B505460C461646002000903D48CD
:10579000854205D03C48854202D03C48854200D134
:1057A00004E04FF4A1613A48FAF7FAFC142C05D052
:1057B000182C03D01C2C01D0202C00D104E040F286
:1057C00009513348FAF7ECFCB6F5805F00DA04E0E3
:1057D00040F20A512E48FAF7E3FC00950098204465
:1057E000009000980660F8BD70B505460C4600268E
:1057F0002448854205D02448854202D0234885426A
:1058000000D104E040F22E512148FAF7C9FC64B3FC
:10581000B4F5803F29D0B4F5003F26D0B4F5403F21
:1058200023D0B4F5802F20D0B4F5A02F1DD0B4F52F
:10583000C02F1AD0B4F5E02F17D0B4F5002F14D034
:10584000B4F5102F11D0B4F5202F0ED0B4F5302FB1
:105850000BD0B4F5402F08D0B4F5502F05D0B4F5D7
:10586000602F02D0B4F5702F00D104E040F22F5128
:105870000748FAF795FCAE6826F470262643AE601A
:1058800070BD0000002001400021014000220140C5
:10589000A4D100080823014070B504460D46002637
:1058A000E148844205D0E148844202D0E048844285
:1058B00000D104E04FF4AA61DE48FAF771FC45B16B
:1058C000B5F5801F05D0B5F5001F02D0B5F5401F16
:1058D00000D104E040F25151D648FAF761FCA668C5
:1058E00026F440162E43A66070BD10B50446CE487F
:1058F000844205D0CD48844202D0CD48844200D1B4
:1059000004E040F26451CB48FAF74AFCA06840F446
:105910008000A06010BD70B504460025C2488442D6
:1059200005D0C248844202D0C148844200D104E07C
:1059300040F27251BF48FAF733FCA06800F48000CF
:1059400008B1012500E00025284670BD70B5044669
:105950000D46B548844205D0B448844202D0B448CC
:10596000844200D104E040F28E51B248FAF718FCAC
:105970000DB1012D00D104E040F28F51AD48FAF78E
:105980000FFC25B1606840F48060606003E06068EF
:1059900020F48060606070BD70B504460D46A2487A
:1059A000844205D0A148844202D0A148844200D15B
:1059B00004E04FF4B5619F48FAF7F2FB0DB1012DF9
:1059C00000D104E040F2A9519A48FAF7E9FB25B169
:1059D000606840F48050606003E0606820F48050AC
:1059E000606070BD38B505460C46002000908E48BA
:1059F000854205D08D48854202D08D48854200D130
:105A000004E040F2C6518B48FAF7CAFB142C05D0CB
:105A1000182C03D01C2C01D0202C00D104E040F223
:105A2000C7518448FAF7BCFB009504F1280000999F
:105A3000084400900098006880B238BD2DE9F0411C
:105A400004460D46164600277748844205D077481D
:105A5000844202D07648844200D104E040F23161B1
:105A60007448FAF79DFB0EB1012E00D104E040F21C
:105A700032617048FAF794FB40F2052085420AD063
:105A8000B5F5837F07D040F20740854203D042F24C
:105A90001A00854200D104E040F233616548FAF70C
:105AA0007FFBEFB2012000FA07F71EB160683843B0
:105AB000606002E06068B8436060BDE8F08170B586
:105AC00005460C4600265848854205D05748854271
:105AD00002D05748854200D104E040F25661554853
